:020000040800F2
:1000000000000824610A0008010A0008090A000823
:10001000110A0008190A0008210A0008000000005F
:10002000000000000000000000000000290A000895
:10003000370A000800000000450A0008530A0008BB
:10004000B50A0008B50A0008B50A0008B50A000894
:10005000B50A0008B50A0008B50A0008B50A000884
:10006000B50A0008B50A0008B50A0008B50A000874
:10007000B50A0008B50A0008B50A0008B50A000864
:10008000B50A0008B50A0008B50A0008B50A000854
:10009000B50A0008B50A0008B50A0008B50A000844
:1000A000B50A0008B50A0008B50A0008B50A000834
:1000B000B50A0008B50A0008B50A0008B50A000824
:1000C000B50A0008B50A0008B50A0008B50A000814
:1000D000B50A0008B50A0008B50A0008B50A000804
:1000E000B50A0008B50A000800000000B50A0008BB
:1000F000B50A0008B50A0008B50A0008B50A0008E4
:10010000B50A0008B50A0008B50A0008B50A0008D3
:10011000B50A0008B50A0008B50A0008B50A0008C3
:10012000B50A0008B50A0008B50A0008B50A0008B3
:10013000B50A0008B50A0008B50A0008B50A0008A3
:10014000B50A0008B50A0008000000000000000021
:10015000B50A0008B50A0008B50A0008B50A000883
:10016000B50A0008B50A0008B50A0008B50A000873
:10017000B50A0008B50A0008B50A0008B50A000863
:10018000B50A0008B50A0008B50A0008B50A000853
:10019000B50A0008B50A0008B50A0008B50A000843
:1001A000B50A0008B50A0008B50A0008B50A000833
:1001B000B50A0008B50A0008B50A0008B50A000823
:1001C000B50A0008B50A0008B50A0008B50A000813
:1001D000B50A0008B50A0008B50A0008B50A000803
:1001E000B50A0008B50A0008B50A0008B50A0008F3
:1001F000B50A0008B50A0008B50A0008B50A0008E3
:10020000B50A0008B50A0008B50A0008B50A0008D2
:10021000B50A0008B50A0008B50A0008B50A0008C2
:10022000B50A0008B50A0008B50A00080000000079
:10023000B50A0008B50A0008B50A0008B50A0008A2
:10024000B50A0008B50A0008B50A0008B50A000892
:10025000B50A0008B50A0008B50A0008B50A000882
:10026000B50A0008B50A0008B50A0008B50A000872
:10027000B50A0008B50A0008B50A0008B50A000862
:10028000B50A0008B50A0008B50A00080000000019
:08029000B50A0008B50A0008D8
:1002980010B5054C237833B9044B13B10448AFF3B8
:1002A80000800123237010BD14000024000000000A
:1002B8008039000808B5034B1BB103490348AFF365
:1002C800008008BD000000001800002480390008E4
:1002D80053B94AB9002908BF00281CBF4FF0FF31A5
:1002E8004FF0FF3000F088B9ADF1080C6DE904CE8D
:1002F80000F006F8DDF804E0DDE9022304B07047F9
:100308002DE9F047089D8E4604468846002B4AD1C1
:100318008A42174662D9B2FA82F64EB1C6F1200374
:1003280001FA06F820FA03F3B74043EA0808B44094
:100338004FEA174E1FFA87FCB8FBFEF1230C0EFBA1
:10034800118843EA084301FB0CF29A4209D9FB18C9
:1003580001F1FF3080F0EA809A4240F2E7800239EA
:100368003B449A1AA3B2B2FBFEF00EFB102243EAFA
:10037800024300FB0CFC9C4509D9FB1800F1FF3235
:1003880080F0D6809C4540F2D3803B44023840EA56
:100398000140A3EB0C0300211DB1F3400022C5E985
:1003A8000032BDE8F0878B4205D90DB1C5E90001DF
:1003B80000210846F5E7B3FA83F1002946D17345D1
:1003C80002D3824200F20581841A6EEB03020120F7
:1003D8009046002DE5D0C5E90048E2E7002A00F084
:1003E8009080B2FA82F6002E40F0A4808A1A030C9C
:1003F8004FEA174E80B2BCB20121B2FBFEFC0EFBE5
:100408001C2243EA024304FB0CF29A4207D9FB1868
:100418000CF1FF3802D29A4200F2E080C4469B1ADF
:10042800B3FBFEF20EFB123340EA034302FB04F473
:100438009C4207D9FB1802F1FF3002D29C4200F21D
:10044800CA8002461B1B42EA0C40A5E7C1F1200600
:100458008B4022FA06F71F430EFA01F420FA06F33E
:100468002EFA06FE4FEA1749234300FA01F81FFA4D
:1004780087FCBEFBF9F01C0C09FB10EE44EA0E44A5
:1004880000FB0CFEA64502FA01F209D93C1900F15D
:10049800FF3A80F09C80A64540F2998002383C449F
:1004A800A4EB0E041FFA83FEB4FBF9F309FB134413
:1004B8004EEA044403FB0CFCA44508D93C1903F19B
:1004C800FF3E80F08280A4457FD9023B3C4443EA4A
:1004D8000040A4EB0C04A0FB02EC64457346E14623
:1004E80062D35FD05DB1B8EB030264EB090404FA90
:1004F80006F622FA01F31E43CC40C5E90064002148
:100508004FE7B1FBF2FC010C41EA0E4180B240EA30
:1005180001423B4638463C46B846BE462026B1FB1B
:10052800F7F1A2EB080241EA0C4166E7014618E739
:1005380010462CE7C6F120022EFA02F3B740B1406C
:1005480020FA02F24FEA174E0A43B3FBFEF8BCB298
:100558000EFB1833110C41EA034108FB04F9B040C3
:1005680089454FEA104380B23ED9791808F1FF3C1B
:1005780001D289451FD8A1EB0901B1FBFEF909FB9E
:1005880004F80EFB191192B242EA0142424529D2FF
:10059800BA1809F1FF31C4D24245C2D2A9F1020109
:1005A8003A44BEE7F0459DD2BEEB02036CEB070C64
:1005B8000138E14696E7A7EB09094944A8F1020C7E
:1005C800B1FBFEF909FB04F8DBE773467FE7504609
:1005D80066E70846FDE63B44023A33E7ACF1020C15
:1005E8003B441CE749469CE7A1EB0901C446B1FB23
:1005F800FEF909FB04F8C4E7704700BF80B400AFF8
:10060800494BD3F88830484A43F47003C2F888301D
:10061800454B1B69444A43F010031361434B1B6865
:1006280003F00F03062B07D8404B1B6823F00F037A
:100638003E4A43F0070313603D4B1B683C4A43F0B6
:10064800010313603A4B00221A61394B1A68384982
:10065800384B13400B60354B1B6803F00803002B25
:1006680007D0324B1B6823F00F03304A43F00703CF
:1006780013602F4B00229A612D4B0022DA612C4B1C
:1006880000221A622A4B2C4A9A62294B2B4ADA62B8
:10069800274B2B4A1A63264B00225A63244B284ABD
:1006A8009A63234B0022DA63214B254A1A64204BB4
:1006B80000225A641E4B1B681D4A23F480231360D2
:1006C8001B4B00221A661F4B5B6A1E4A43F4804389
:1006D80053621D4B1A681D4B1340B3F1005F02D2E1
:1006E8001B4B01221A60124BD3F8D43003F4805309
:1006F800002B13D10E4BD3F8D4300D4A43F480535A
:10070800C2F8D430134B43F2D2021A60084BD3F824
:10071800D430074A23F48053C2F8D43000BFBD4612
:100728005DF8047B704700BF00ED00E00020005238
:10073800004402587FEDF6EA000202020000FF01C1
:1007480080020101C00000580010005C0000FFFF9B
:10075800088100510040005280B400AF094BDB68AB
:10076800084A23F00203D36000BF064B5B6803F41A
:100778000053002BF9D000BF00BFBD465DF8047BD5
:10078800704700BF0048025880B582B000AF4FF6EE
:10079800FF737B6000BF364B1B6803F40043002BDC
:1007A80004D07B685A1E7A60002BF4DC7B68002B2F
:1007B80001DA00F001F900F035FA00F05FF82C4B8F
:1007C800D3F8E0302A4A43F00073C2F8E030284BEF
:1007D800D3F8E03003F000733B603B68002000F082
:1007E80091FD0021002000F0A7FD4FF6FF737B600C
:1007F80000BF1F4B1B6803F40043002B04D17B6828
:100808005A1E7A60002BF4DC7B68002B01DA00F0BA
:10081800D3F800F09DF8174B4FF4E1321A60154BEE
:1008280000225A60134B00221A81124B00225A816F
:10083800104B00229A810F49002000F039F9034635
:10084800002B01D000F0B8F8012210210A4800F06E
:100858003FFD4FF47A7000F077FA00221021064825
:1008680000F036FD4FF47A7000F06EFA00BFEBE747
:1008780000440258300000240004025880B59CB09F
:1008880000AF07F124034C220021184603F048F872
:100898003B1D20220021184603F042F8042000F0F6
:1008A8005FFD00233B60284BDB6A274A23F00103E6
:1008B800D362254BDB6A03F001033B60234B9B6942
:1008C80023F44043214A43F4804393611F4B9B69BF
:1008D80003F440433B603B6800BF1C4B9B6903F437
:1008E8000053B3F5005FF8D102237B6201233B6319
:1008F80040237B630023BB6407F12403184600F000
:1009080089FD0346002B01D000F056F83F237B6099
:100918000023BB600023FB6000233B6100237B6155
:100928000023BB610023FB6100233B623B1D0121C7
:10093800184601F0C9F90346002B01D000F03CF835
:1009480000BF7037BD4680BD0004005800480258FB
:1009580080B586B000AF3B1D00221A605A609A60CD
:10096800DA601A61124BD3F8E030114A43F00203FF
:10097800C2F8E0300E4BD3F8E03003F002033B60DE
:100988003B68002210210B4800F0A2FC10237B607A
:100998000123BB600023FB6000233B613B1D19461C
:1009A800044800F0E5FA00BF1837BD4680BD00BF17
:1009B800004402580004025880B400AF72B600BF69
:1009C80000BFFDE780B483B000AF0A4BD3F8F43022
:1009D800084A43F00203C2F8F430064BD3F8F43067
:1009E80003F002037B607B6800BF0C37BD465DF8EF
:1009F800047B70470044025880B400AF00BFFDE795
:100A080080B400AF00BFFDE780B400AF00BFFDE7D2
:100A180080B400AF00BFFDE780B400AF00BFFDE7C2
:100A280080B400AF00BFBD465DF8047B704780B45A
:100A380000AF00BFBD465DF8047B704780B400AFCF
:100A480000BFBD465DF8047B704780B500AF00F07D
:100A58005BF900BF80BD0000DFF838D0FFF77CFEEF
:100A6800FFF7CCFD0C480D490D4A002302E0D4588D
:100A7800C4500433C4188C42F9D30A4A0A4C0023E0
:100A880001E013600432A242FBD302F051FFFFF7EA
:100A98007BFE704700000824000000241400002496
:100AA800D039000814000024D8000024FEE7000014
:100AB80080B584B000AF03463960FB710023FB604A
:100AC800FB79002B03D06FF00103FB6018E0FB7982
:100AD800942202FB03F30D4A1344184600F04AF827
:100AE800FB79942202FB03F3084A13443968184639
:100AF80000F00EF80346002B02D06FF00303FB60F2
:100B0800FB6818461037BD4680BD00BF4000002472
:100B180080B582B000AF78603960154B1A687B6881
:100B28001A603B681A687B685A607B680C225A61B5
:100B38003B685B891A467B681A613B685A687B6820
:100B48009A603B681B891A467B68DA603B689B8918
:100B58001A467B689A617B684FF40042DA617868CC
:100B680001F0FCFE034618460837BD4680BD00BFAD
:100B78000800002480B58AB000AF7860274BD3F80E
:100B8800E030264A43F00803C2F8E030234BD3F89C
:100B9800E03003F008033B613B69204BD3F8E030B9
:100BA8001E4A43F00803C2F8E0301C4BD3F8E0308B
:100BB80003F00803FB60FB68184BD3F8E830174ACA
:100BC80043F48023C2F8E830144BD3F8E83003F438
:100BD8008023BB60BB684FF480737B610223BB61D9
:100BE80002233B620123FB6107237B6207F11403A5
:100BF80019460B4800F0BCF94FF400737B610223DF
:100C0800BB6107237B6207F114031946044800F00F
:100C1800AFF900BF2837BD4680BD00BF0044025869
:100C2800000C025880B582B000AF032000F06EF9C6
:100C380001F000FA0246154B9B691B0A03F00F03EB
:100C48001349CB5C03F01F0322FA03F37B600F4BBD
:100C58009B6903F00F030E4AD35C03F01F037A6805
:100C680022FA03F30B4A13600B4A7B6813600020D7
:100C780000F014F80346002B01D0012302E0FFF72F
:100C8800A1FE002318460837BD4680BD004402581F
:100C980098390008040000240000002480B582B0C0
:100CA80000AF7860154B1B78002B01D1012321E0A0
:100CB800134B1A68114B1B7819464FF47A73B3FB20
:100CC800F1F3B2FBF3F3184600F045F90346002BA5
:100CD80001D001230EE07B680F2B0AD80022796827
:100CE8004FF0FF3000F01DF9064A7B6813600023BF
:100CF80000E0012318460837BD4680BD10000024D7
:100D0800000000240C00002480B400AF064B1B78C0
:100D18001A46064B1B681344044A136000BFBD46BD
:100D28005DF8047B704700BF10000024D400002445
:100D380080B400AF034B1B681846BD465DF8047BC2
:100D4800704700BFD400002480B584B000AF78603D
:100D5800FFF7EEFFB8607B68FB60FB68B3F1FF3F0D
:100D680005D00A4B1B781A46FB681344FB6000BF8A
:100D7800FFF7DEFF0246BB68D31AFA689A42F7D833
:100D880000BF00BF1037BD4680BD00BF1000002463
:100D980080B400AF034B1B681B0C1846BD465DF8BA
:100DA800047B70470010005C80B485B000AF7860A9
:100DB8007B6803F00703FB600B4BDB68BB60BA681A
:100DC8004FF6FF031340BB60FB681A02BB681A4367
:100DD800064B1343BB60044ABB68D36000BF14379B
:100DE800BD465DF8047B704700ED00E00000FA05A1
:100DF80080B400AF044BDB681B0A03F007031846F6
:100E0800BD465DF8047B704700ED00E080B483B018
:100E180000AF03463960FB80B7F90630002B0ADBC8
:100E28003B68DAB20C49B7F906301201D2B20B446A
:100E380083F800230AE03B68DAB20849FB8803F02C
:100E48000F03043B1201D2B20B441A7600BF0C37D1
:100E5800BD465DF8047B704700E100E000ED00E06E
:100E680080B489B000AFF860B9607A60FB6803F0BD
:100E78000703FB61FB69C3F10703042B28BF0423A5
:100E8800BB61FB690433062B02D9FB69033B00E015
:100E980000237B614FF0FF32BB6902FA03F3DA43A8
:100EA800BB681A407B699A404FF0FF317B6901FAB1
:100EB80003F3D9437B680B40134318462437BD46D8
:100EC8005DF8047B7047000080B582B000AF7860A1
:100ED8007B68013BB3F1807F01D301230FE00A4A0D
:100EE8007B68013B53600F214FF0FF30FFF78EFF07
:100EF800054B00229A60044B07221A60002318460B
:100F08000837BD4680BD00BF10E000E080B582B064
:100F180000AF78607868FFF747FF00BF0837BD4625
:100F280080BD80B586B000AF0346B9607A60FB81AA
:100F3800FFF75EFF78617A68B9687869FFF790FF14
:100F48000246B7F90E3011461846FFF75FFF00BF9B
:100F58001837BD4680BD80B582B000AF786078682C
:100F6800FFF7B2FF034618460837BD4680BD0000AC
:100F780080B489B000AF786039600023FB61894B89
:100F88007B6194E13B681A680121FB6901FA03F36C
:100F980013403B613B69002B00F086813B685B682E
:100FA80003F00303012B05D03B685B6803F00303E0
:100FB800022B30D17B689B68BB61FB695B00032215
:100FC80002FA03F3DB43BA691340BB613B68DA6892
:100FD800FB695B0002FA03F3BA691343BB617B68E0
:100FE800BA699A607B685B68BB610122FB6902FA97
:100FF80003F3DB43BA691340BB613B685B681B09B9
:1010080003F00102FB6902FA03F3BA691343BB61F7
:101018007B68BA695A603B685B6803F00303032B7B
:1010280017D07B68DB68BB61FB695B00032202FAAF
:1010380003F3DB43BA691340BB613B689A68FB69F9
:101048005B0002FA03F3BA691343BB617B68BA69B0
:10105800DA603B685B6803F00303022B23D1FB696A
:10106800DA087B68083253F82230BB61FB6903F069
:1010780007039B000F2202FA03F3DB43BA6913400C
:10108800BB613B681A69FB6903F007039B0002FA1E
:1010980003F3BA691343BB61FB69DA087B6808325A
:1010A800B96943F822107B681B68BB61FB695B0068
:1010B800032202FA03F3DB43BA691340BB613B68BE
:1010C8005B6803F00302FB695B0002FA03F3BA6989
:1010D8001343BB617B68BA691A603B685B6803F4B9
:1010E8004033002B00F0E0802F4BD3F8F4302E4A29
:1010F80043F00203C2F8F4302B4BD3F8F43003F07A
:101108000203FB60FB68294AFB699B08023352F81B
:101118002330BB61FB6903F003039B000F2202FA33
:1011280003F3DB43BA691340BB617B68204A9342EF
:1011380052D07B681F4A934231D07B681E4A934243
:101148002BD07B681D4A934225D07B681C4A93426A
:101158001FD07B681B4A934219D07B681A4A934276
:1011680013D07B68194A93420DD07B68184A934282
:1011780007D07B68174A934201D109232DE00A233F
:101188002BE0082329E0072327E0062325E0052391
:1011980023E0042321E003231FE002231DE00123B1
:1011A8001BE000BF800000580044025800040058AB
:1011B800000002580004025800080258000C0258A7
:1011C800001002580014025800180258001C025857
:1011D80000200258002402580023FA6902F0030292
:1011E80092009340BA691343BB613849FB699B0875
:1011F8000233BA6941F823204FF0B0431B68BB6142
:101208003B69DB43BA691340BB613B685B6803F425
:101218008013002B03D0BA693B691343BB614FF0BD
:10122800B042BB6913604FF0B0435B68BB613B6978
:10123800DB43BA691340BB613B685B6803F4001386
:10124800002B03D0BA693B691343BB614FF0B0422E
:10125800BB6953607B695B68BB613B69DB43BA6907
:101268001340BB613B685B6803F40033002B03D079
:10127800BA693B691343BB617B69BA695A607B6988
:101288001B68BB613B69DB43BA691340BB613B68C0
:101298005B6803F48033002B03D0BA693B691343BE
:1012A800BB617B69BA691A60FB690133FB613B6802
:1012B8001A68FB6922FA03F3002B7FF463AE00BFC0
:1012C80000BF2437BD465DF8047B70470004005812
:1012D80080B483B000AF78600B467B8013467B7088
:1012E8007B78002B03D07A887B689A6103E07B883F
:1012F8001A047B689A6100BF0C37BD465DF8047B11
:101308007047000080B483B000AF7860084A7B68FB
:10131800203352F82330074A934201D1002300E0DA
:10132800012318460C37BD465DF8047B704700BFA3
:10133800006402580003008080B483B000AF786076
:10134800396006493B6843F440727B6841F82320C2
:1013580000BF0C37BD465DF8047B70470064025837
:1013680080B584B000AF7860294BDB6803F00703D1
:10137800062B0AD0264BDB6803F03F037A689A42B3
:1013880001D0012340E000233EE0214BDB6823F03D
:101398003F021F497B681343CB60FFF7C9FCF86025
:1013A80009E0FFF7C5FC0246FB68D31AB3F57A7F5C
:1013B80001D9012328E0164B5B6803F40053B3F509
:1013C800005FEED17B681E2B08D07B682E2B05D0E2
:1013D8007B681D2B02D07B682D2B14D1FFF7A8FC4E
:1013E800F86009E0FFF7A4FC0246FB68D31AB3F5DE
:1013F8007A7F01D9012307E0054BDB6803F48033CA
:10140800B3F5803FEED1002318461037BD4680BDA6
:101418000048025880B58CB000AF78607B68002B1C
:1014280002D1012300F048BC7B681B6803F001036C
:10143800002B00F08880994B1B6903F03803FB628E
:10144800964B9B6ABB62FB6A102B07D0FB6A182B72
:1014580011D1BB6A03F00303022B0CD18F4B1B681D
:1014680003F40033002B6DD07B685B68002B69D1D7
:10147800012300F021BC7B685B68B3F5803F06D18F
:10148800864B1B68854A43F4803313602EE07B68E3
:101498005B68002B0CD1814B1B68804A23F4803396
:1014A80013607E4B1B687D4A23F4802313601DE084
:1014B8007B685B68B3F5A02F0CD1784B1B68774A23
:1014C80043F480231360754B1B68744A43F48033DC
:1014D80013600BE0714B1B68704A23F48033136070
:1014E8006E4B1B686D4A23F4802313607B685B682E
:1014F800002B13D0FFF71CFC786208E0FFF718FCFC
:1015080002467B6AD31A642B01D90323D4E3634BC5
:101518001B6803F40033002BF0D014E0FFF708FC3D
:10152800786208E0FFF704FC02467B6AD31A642B52
:1015380001D90323C0E3594B1B6803F40033002B84
:10154800F0D100E000BF7B681B6803F00203002BAA
:1015580000F0CA80514B1B6903F038033B624F4BC4
:101568009B6AFB613B6A002B07D03B6A182B56D15C
:10157800FB6903F00303002B51D1484B1B6803F0B0
:101588000403002B05D07B68DB68002B01D1012305
:1015980092E3424B1B6823F019027B68DB683F49E2
:1015A80013430B60FFF7C4FB786208E0FFF7C0FB4A
:1015B80002467B6AD31A022B01D903237CE3374BFB
:1015C8001B6803F00403002BF0D0FFF7E1FB034690
:1015D80041F20302934217D87B681B69402B08D15C
:1015E8002E4B5B6823F47C332C4A43F4003353605E
:1015F8007AE02A4B5B6823F47C327B681B691B0307
:10160800264913434B606FE0244B5B6823F0FE428E
:101618007B681B691B06214913434B6064E07B68A8
:10162800DB68002B47D01D4B1B6823F019027B6831
:10163800DB681A4913430B60FFF77AFB786208E00E
:10164800FFF776FB02467B6AD31A022B01D90323E4
:1016580032E3124B1B6803F00403002BF0D0FFF7B2
:1016680097FB034641F20302934219D87B681B6932
:10167800402B08D1094B5B6823F47C33074A43F4B9
:101688000033536030E0054B5B6823F47C327B68A1
:101698001B691B03014913434B6025E000440258B2
:1016A8009A4B5B6823F0FE427B681B691B069749CF
:1016B80013434B6018E0954B1B68944A23F00103D1
:1016C8001360FFF735FB786208E0FFF731FB02464D
:1016D8007B6AD31A022B01D90323EDE28B4B1B68DB
:1016E80003F00403002BF0D17B681B6803F01003A0
:1016F800002B00F0A980854B1B6903F03803BB6100
:10170800824B9B6A7B61BB69082B07D0BB69182B8E
:101718003AD17B6903F00303012B35D17B4B1B685E
:1017280003F48073002B05D07B68DB69802B01D024
:101738000123C1E2FFF72CFB034641F20302934267
:1017480017D87B681B6A202B08D1704B5B6823F085
:10175800F8436E4A43F08043536075E06B4B5B6817
:1017680023F0F8427B681B6A9B06684913434B6069
:101778006AE0664BDB6823F07C527B681B6A1B06B9
:1017880062491343CB605FE07B68DB69002B42D082
:101798005E4B1B685D4A43F080031360FFF7C8FA8D
:1017A800786208E0FFF7C4FA02467B6AD31A022B74
:1017B80001D9032380E2554B1B6803F48073002B87
:1017C800F0D0FFF7E5FA034641F20302934217D837
:1017D8007B681B6A202B08D14C4B5B6823F0F843CD
:1017E8004A4A43F0804353602EE0484B5B6823F03D
:1017F800F8427B681B6A9B06444913434B6023E00D
:10180800424BDB6823F07C527B681B6A1B063F490E
:101818001343CB6018E03D4B1B683C4A23F0800320
:101828001360FFF785FA786208E0FFF781FA02464D
:101838007B6AD31A022B01D903233DE2334B1B6881
:1018480003F48073002BF0D17B681B6803F0080356
:10185800002B36D07B685B69002B19D02B4B5B6F54
:101868002A4A43F001035367FFF762FA786208E0F7
:10187800FFF75EFA02467B6AD31A022B01D90323CB
:101888001AE2224B5B6F03F00203002BF0D018E042
:101898001E4B5B6F1D4A23F001035367FFF748FA9D
:1018A800786208E0FFF744FA02467B6AD31A022BF3
:1018B80001D9032300E2154B5B6F03F00203002BF1
:1018C800F0D17B681B6803F02003002B39D07B68BC
:1018D8009B69002B1CD00D4B1B680C4A43F48053AA
:1018E8001360FFF725FA786208E0FFF721FA02464D
:1018F8007B6AD31A022B01D90323DDE1034B1B6852
:1019080003F40053002BF0D01BE000BF0044025842
:101918009B4B1B689A4A23F480531360FFF708FA1D
:10192800786208E0FFF704FA02467B6AD31A022BB2
:1019380001D90323C0E1924B1B6803F40053002B29
:10194800F0D17B681B6803F00403002B00F0818052
:101958008C4B1B688B4A43F480731360FFF7E8F9DC
:10196800786208E0FFF7E4F902467B6AD31A642B31
:1019780001D90323A0E1834B1B6803F48073002B78
:10198800F0D07B689B68012B06D17D4B1B6F7C4A8E
:1019980043F0010313672DE07B689B68002B0CD193
:1019A800774B1B6F764A23F001031367744B1B6F49
:1019B800734A23F0040313671CE07B689B68052BBC
:1019C8000CD16F4B1B6F6E4A43F0040313676C4BCB
:1019D8001B6F6B4A43F0010313670BE0684B1B6FE7
:1019E800674A23F001031367654B1B6F644A23F0B2
:1019F800040313677B689B68002B15D0FFF798F9E1
:101A080078620AE0FFF794F902467B6AD31A41F23A
:101A18008832934201D903234EE1594B1B6F03F0DF
:101A28000203002BEED014E0FFF782F978620AE097
:101A3800FFF77EF902467B6AD31A41F28832934255
:101A480001D9032338E14E4B1B6F03F00203002B2F
:101A5800EED17B685B6A002B00F02D81484B1B6937
:101A680003F03803182B00F0BD807B685B6A022BFB
:101A780040F09E80424B1B68414A23F080731360FC
:101A8800FFF756F9786208E0FFF752F902467B6AD9
:101A9800D31A022B01D903230EE1394B1B6803F03B
:101AA8000073002BF0D1364B9A6A374B13407A6893
:101AB800916A7A68D26A12010A43314913438B62E8
:101AC8007B681B6B013BC3F308027B685B6B013BC4
:101AD8005B029BB21A437B689B6B013B1B0403F4BC
:101AE800FE031A437B68DB6B013B1B0603F0FE43D6
:101AF800234913430B63224BDB6A214A23F001037A
:101B0800D3621F4B5A6B214B13407A68926CD200F8
:101B18001B4913434B631A4BDB6A23F00C027B68A7
:101B28001B6C17491343CB62154BDB6A23F0020287
:101B38007B685B6C12491343CB62114BDB6A104A1A
:101B480043F48033D3620E4BDB6A0D4A43F400330F
:101B5800D3620B4BDB6A0A4A43F48023D362084BF7
:101B6800DB6A074A43F00103D362054B1B68044A4A
:101B780043F080731360FFF7DBF8786211E000BF71
:101B880000440258004802580CFCFFFF0700FFFF02
:101B9800FFF7CEF802467B6AD31A022B01D903233A
:101BA8008AE0474B1B6803F00073002BF0D082E0FB
:101BB800434B1B68424A23F080731360FFF7B8F861
:101BC800786208E0FFF7B4F802467B6AD31A022B62
:101BD80001D9032370E03A4B1B6803F00073002B14
:101BE800F0D168E0364B9B6A3B61354B1B6BFB6061
:101BF8007B685B6A012B31D03B6903F003027B6889
:101C08009B6A9A422AD13B691B0903F03F027B6811
:101C1800DB6A9A4222D1FB68C3F308027B681B6B1C
:101C2800013B9A421AD1FB685B0A03F07F027B688A
:101C38005B6B013B9A4211D1FB681B0C03F07F02DE
:101C48007B689B6B013B9A4208D1FB681B0E03F033
:101C58007F027B68DB6B013B9A4201D001232BE0BA
:101C6800174B5B6BDB08C3F30C033B617B689B6C16
:101C78003A699A421FD0124BDB6A114A23F00103DA
:101C8800D362FFF755F8786200BFFFF751F80246B4
:101C98007B6A9342F9D00A4B5A6B0A4B13407A6815
:101CA800926CD200064913434B63054BDB6A044A26
:101CB80043F00103D362002318463037BD4680BD88
:101CC800004402580700FFFF80B586B000AF786077
:101CD80039607B68002B01D101239CE18A4B1B688A
:101CE80003F00F033A689A4210D9874B1B6823F018
:101CF8000F0285493B6813430B60834B1B6803F055
:101D08000F033A689A4201D0012384E17B681B687B
:101D180003F00403002B10D07B681A697B4B9B6986
:101D280003F070039A4208D9784B9B6923F070023C
:101D38007B681B69754913438B617B681B6803F0DB
:101D48000803002B10D07B685A69704BDB6903F0DD
:101D580070039A4208D96D4BDB6923F070027B68E7
:101D68005B696A491343CB617B681B6803F0100306
:101D7800002B10D07B689A69644BDB6903F4E0633D
:101D88009A4208D9614BDB6923F4E0627B689B695E
:101D98005E491343CB617B681B6803F02003002B6B
:101DA80010D07B68DA69594B1B6A03F070039A42BA
:101DB80008D9564B1B6A23F070027B68DB695349CC
:101DC80013430B627B681B6803F00203002B10D0DF
:101DD8007B68DA684D4B9B6903F00F039A4208D978
:101DE8004A4B9B6923F00F027B68DB684749134322
:101DF8008B617B681B6803F00103002B55D0434BB4
:101E08009B6923F470627B689B68404913438B612C
:101E18007B685B68022B07D13C4B1B6803F40033DB
:101E2800002B21D10123F6E07B685B68032B07D1E7
:101E3800364B1B6803F00073002B15D10123EAE031
:101E48007B685B68012B07D1304B1B6803F48073F8
:101E5800002B09D10123DEE02C4B1B6803F004039F
:101E6800002B01D10123D6E0284B1B6923F0070280
:101E78007B685B68254913430B61FEF759FF78615E
:101E88000AE0FEF755FF02467B69D31A41F2883211
:101E9800934201D90323BEE01C4B1B6903F03802AF
:101EA8007B685B68DB009A42EBD17B681B6803F0B8
:101EB8000203002B10D07B68DA68144B9B6903F08F
:101EC8000F039A4208D2114B9B6923F00F027B68DB
:101ED800DB680E4913438B610B4B1B6803F00F0340
:101EE8003A689A4214D2084B1B6823F00F0206493D
:101EF8003B6813430B60044B1B6803F00F033A68FD
:101F08009A4205D0012386E000200052004402587E
:101F18007B681B6803F00403002B10D07B681A69E8
:101F28003F4B9B6903F070039A4208D23C4B9B6974
:101F380023F070027B681B69394913438B617B6806
:101F48001B6803F00803002B10D07B685A69344BD8
:101F5800DB6903F070039A4208D2314BDB6923F046
:101F680070027B685B692E491343CB617B681B68F1
:101F780003F01003002B10D07B689A69284BDB69AB
:101F880003F4E0639A4208D2254BDB6923F4E0624C
:101F98007B689B6922491343CB617B681B6803F00C
:101FA8002003002B10D07B68DA691D4B1B6A03F0F5
:101FB80070039A4208D21A4B1B6A23F070027B689E
:101FC800DB69174913430B6200F034F80246144BDF
:101FD8009B691B0A03F00F031249CB5C03F01F0334
:101FE80022FA03F33B610E4B9B6903F00F030D4A82
:101FF800D35C03F01F033A6922FA03F30A4A136019
:102008000A4A3B6913600A4B1B681846FEF746FEEE
:102018000346FB73FB7B18461837BD4680BD00BFDF
:1020280000440258983900080400002400000024E5
:102038000C00002480B489B000AFB34B1B6903F0D7
:102048003803182B00F2558101A252F823F000BF83
:10205800BD200008FB220008FB220008FB22000824
:10206800FB220008FB220008FB220008FB220008D4
:10207800E3200008FB220008FB220008FB220008DE
:10208800FB220008FB220008FB220008FB220008B4
:10209800E9200008FB220008FB220008FB220008B8
:1020A800FB220008FB220008FB220008FB22000894
:1020B800EF200008944B1B6803F02003002B09D085
:1020C800914B1B68DB0803F00303904A22FA03F3E1
:1020D800BB6111E18D4BBB610EE18D4BBB610BE127
:1020E8008C4BBB6108E1884B9B6A03F003037B615F
:1020F800854B9B6A1B0903F03F033B61824BDB6AFC
:1021080003F00103FB60804B5B6BDB08C3F30C033C
:10211800FA6802FB03F307EE903AF8EE677AC7ED28
:10212800027A3B69002B00F0E1807B69022B00F00A
:1021380083807B69022B00F2A1807B69002B03D08E
:102148007B69012B56D099E06F4B1B6803F0200385
:10215800002B2DD06C4B1B68DB0803F003036B4A84
:1021680022FA03F37B607B6807EE903AF8EE676A21
:102178003B6907EE903AF8EE677A86EEA77A624BEB
:102188001B6BC3F3080307EE903AF8EE676A97ED06
:10219800026ADFED615AC6EE257A76EEA77AF7EE87
:1021A800006A77EEA67A67EE277AC7ED077A87E0A6
:1021B8003B6907EE903AF8EE677ADFED586A86EEEB
:1021C800A77A514B1B6BC3F3080307EE903AF8EE5E
:1021D800676A97ED026ADFED505AC6EE257A76EE09
:1021E800A77AF7EE006A77EEA67A67EE277AC7ED48
:1021F800077A65E03B6907EE903AF8EE677ADFED1B
:10220800486A86EEA77A404B1B6BC3F3080307EEB8
:10221800903AF8EE676A97ED026ADFED3F5AC6EE2C
:10222800257A76EEA77AF7EE006A77EEA67A67EE59
:10223800277AC7ED077A43E03B6907EE903AF8EE54
:10224800677ADFED386A86EEA77A2F4B1B6BC3F3EC
:10225800080307EE903AF8EE676A97ED026ADFED39
:102268002E5AC6EE257A76EEA77AF7EE006A77EE52
:10227800A67A67EE277AC7ED077A21E03B6907EE71
:10228800903AF8EE677ADFED266A86EEA77A1E4B5B
:102298001B6BC3F3080307EE903AF8EE676A97EDF5
:1022A800026ADFED1D5AC6EE257A76EEA77AF7EEBA
:1022B800006A77EEA67A67EE277AC7ED077A00BF3D
:1022C800114B1B6B5B0A03F07F0301333B603B68D8
:1022D80007EE903AB8EE677AD7ED076AC6EE877AC6
:1022E800FCEEE77A17EE903ABB6105E00023BB618C
:1022F80002E0074BBB6100BFBB6918462437BD46E7
:102308005DF8047B704700BF004402580090D0037A
:1023180000093D0040787D01000000460024744C0F
:102328000024744A20BCBE4B80B582B000AFFFF7D2
:1023380081FE0246104B9B691B0A03F00F030F49ED
:10234800CB5C03F01F0322FA03F37B600A4B9B6903
:1023580003F00F03094AD35C03F01F037A6822FADB
:1023680003F3074A1360074A7B681360044B1B6832
:1023780018460837BD4680BD004402589839000801
:10238800040000240000002480B500AFFFF7CCFF54
:102398000246064BDB691B0903F007030449CB5CC3
:1023A80003F01F0322FA03F3184680BD00440258C5
:1023B8009839000880B500AFFFF7B6FF0246064B14
:1023C800DB691B0A03F007030449CB5C03F01F0316
:1023D80022FA03F3184680BD0044025898390008D1
:1023E80080B500AFFFF7A0FF0246064B1B6A1B092A
:1023F80003F007030449CB5C03F01F0322FA03F33D
:10240800184680BD004402589839000880B489B045
:1024180000AF7860A14B9B6A03F00303BB619F4B3D
:102428009B6A1B0B03F03F037B619C4BDB6A1B0918
:1024380003F001033B61994BDB6BDB08C3F30C032F
:102448003A6902FB03F307EE903AF8EE677AC7EDB4
:10245800037A7B69002B00F01181BB69022B00F025
:102468008380BB69022B00F2A180BB69002B03D0DB
:10247800BB69012B56D099E0884B1B6803F02003F9
:10248800002B2DD0854B1B68DB0803F00303844A1F
:1024980022FA03F3BB60BB6807EE903AF8EE676A6E
:1024A8007B6907EE903AF8EE677A86EEA77A7B4B5F
:1024B8009B6BC3F3080307EE903AF8EE676A97ED53
:1024C800036ADFED785AC6EE257A76EEA77AF7EE3C
:1024D800006A77EEA67A67EE277AC7ED077A87E073
:1024E8007B6907EE903AF8EE677ADFED6F6A86EE61
:1024F800A77A6A4B9B6BC3F3080307EE903AF8EE92
:10250800676A97ED036ADFED675AC6EE257A76EEBD
:10251800A77AF7EE006A77EEA67A67EE277AC7ED14
:10252800077A65E07B6907EE903AF8EE677ADFEDA7
:102538005F6A86EEA77A594B9B6BC3F3080307EED5
:10254800903AF8EE676A97ED036ADFED565AC6EEE1
:10255800257A76EEA77AF7EE006A77EEA67A67EE26
:10256800277AC7ED077A43E07B6907EE903AF8EEE1
:10257800677ADFED4F6A86EEA77A484B9B6BC3F309
:10258800080307EE903AF8EE676A97ED036ADFED05
:10259800455AC6EE257A76EEA77AF7EE006A77EE08
:1025A800A67A67EE277AC7ED077A21E07B6907EEFE
:1025B800903AF8EE677ADFED3D6A86EEA77A374BF8
:1025C8009B6BC3F3080307EE903AF8EE676A97ED42
:1025D800036ADFED345AC6EE257A76EEA77AF7EE6F
:1025E800006A77EEA67A67EE277AC7ED077A00BF0A
:1025F8002A4B9B6B5B0A03F07F0307EE903AF8EED9
:10260800677AB7EE007A37EE877AD7ED076AC6EEB3
:10261800877AFCEEE77A17EE902A7B681A601F4BE0
:102628009B6B1B0C03F07F0307EE903AF8EE677A7A
:10263800B7EE007A37EE877AD7ED076AC6EE877A63
:10264800FCEEE77A17EE902A7B685A60134B9B6B77
:102658001B0E03F07F0307EE903AF8EE677AB7EEA9
:10266800007A37EE877AD7ED076AC6EE877AFCEEEE
:10267800E77A17EE902A7B689A6008E07B68002268
:102688001A607B6800225A607B6800229A6000BF4B
:102698002437BD465DF8047B704700BF00440258EC
:1026A8000090D003000000460024744C0024744AB3
:1026B80020BCBE4B80B489B000AF7860A14B9B6A48
:1026C80003F00303BB619F4B9B6A1B0D03F03F03A1
:1026D8007B619C4BDB6A1B0A03F001033B61994B4E
:1026E8005B6CDB08C3F30C033A6902FB03F307EEE8
:1026F800903AF8EE677AC7ED037A7B69002B00F011
:102708001181BB69022B00F08380BB69022B00F2A8
:10271800A180BB69002B03D0BB69012B56D099E07F
:10272800884B1B6803F02003002B2DD0854B1B68BA
:10273800DB0803F00303844A22FA03F3BB60BB6897
:1027480007EE903AF8EE676A7B6907EE903AF8EE82
:10275800677A86EEA77A7B4B1B6CC3F3080307EEF8
:10276800903AF8EE676A97ED036ADFED785AC6EE9D
:10277800257A76EEA77AF7EE006A77EEA67A67EE04
:10278800277AC7ED077A87E07B6907EE903AF8EE7B
:10279800677ADFED6F6A86EEA77A6A4B1B6CC3F324
:1027A800080307EE903AF8EE676A97ED036ADFEDE3
:1027B800675AC6EE257A76EEA77AF7EE006A77EEC4
:1027C800A67A67EE277AC7ED077A65E07B6907EE98
:1027D800903AF8EE677ADFED5F6A86EEA77A594B92
:1027E8001B6CC3F3080307EE903AF8EE676A97ED9F
:1027F800036ADFED565AC6EE257A76EEA77AF7EE2B
:10280800006A77EEA67A67EE277AC7ED077A43E083
:102818007B6907EE903AF8EE677ADFED4F6A86EE4D
:10282800A77A484B1B6CC3F3080307EE903AF8EEFF
:10283800676A97ED036ADFED455AC6EE257A76EEAC
:10284800A77AF7EE006A77EEA67A67EE277AC7EDE1
:10285800077A21E07B6907EE903AF8EE677ADFEDB8
:102868003D6A86EEA77A374B1B6CC3F3080307EE65
:10287800903AF8EE676A97ED036ADFED345AC6EED0
:10288800257A76EEA77AF7EE006A77EEA67A67EEF3
:10289800277AC7ED077A00BF2A4B1B6C5B0A03F047
:1028A8007F0307EE903AF8EE677AB7EE007A37EED4
:1028B800877AD7ED076AC6EE877AFCEEE77A17EED5
:1028C800902A7B681A601F4B1B6C1B0C03F07F035C
:1028D80007EE903AF8EE677AB7EE007A37EE877A25
:1028E800D7ED076AC6EE877AFCEEE77A17EE902AEC
:1028F8007B685A60134B1B6C1B0E03F07F0307EEBB
:10290800903AF8EE677AB7EE007A37EE877AD7ED25
:10291800076AC6EE877AFCEEE77A17EE902A7B689C
:102928009A6008E07B6800221A607B6800225A607F
:102938007B6800229A6000BF2437BD465DF8047B9F
:10294800704700BF004402580090D00300000046C2
:102958000024744C0024744A20BCBE4B80B582B05D
:1029680000AF78607B68002B01D1012342E07B68CF
:10297800D3F88830002B06D17B68002283F88420A6
:10298800786800F03BF87B682422C3F888207B68CD
:102998001B681A687B681B6822F001021A607B6852
:1029A8009B6A002B02D0786800F09AFD786800F0E6
:1029B8002FF80346012B01D101231BE07B681B681C
:1029C8005A687B681B6822F490425A607B681B68CF
:1029D8009A687B681B6822F02A029A607B681B68E9
:1029E8001A687B681B6842F001021A60786800F078
:1029F80019FE034618460837BD4680BD80B483B02B
:102A080000AF786000BF0C37BD465DF8047B7047A7
:102A18002DE9B04F92B000AF7861002387F84230BB
:102A28007B699A687B691B691A437B695B691A43EE
:102A38007B69DB6913437B647B691B681A68BE4B3F
:102A480013407A691268796C0B4313607B691B68C1
:102A58005B6823F440517B69DA687B691B680A4329
:102A68005A607B699B697B647B691B68B34A9342A4
:102A780004D07B691B6A7A6C13437B647B691B688F
:102A88009A68AF4B13407A691268796C0B4393606C
:102A98007B691B68DB6A23F00F017B695A6A7B69D3
:102AA8001B680A43DA627B691B68A64A934277D19E
:102AB800A54B5B6D03F03803282B6DD801A252F8A3
:102AC80023F000BF712B0008A12B0008A12B0008E0
:102AD800A12B0008A12B0008A12B0008A12B00089E
:102AE800A12B0008792B0008A12B0008A12B0008B6
:102AF800A12B0008A12B0008A12B0008A12B00087E
:102B0800A12B0008812B0008A12B0008A12B00088D
:102B1800A12B0008A12B0008A12B0008A12B00085D
:102B2800A12B0008892B0008A12B0008A12B000865
:102B3800A12B0008A12B0008A12B0008A12B00083D
:102B4800A12B0008912B0008A12B0008A12B00083D
:102B5800A12B0008A12B0008A12B0008A12B00081D
:102B6800A12B0008992B0008012387F8433022E2A3
:102B7800042387F843301EE2082387F843301AE21B
:102B8800102387F8433016E2202387F8433012E2F7
:102B9800402387F843300EE2802387F843300AE267
:102BA8007B691B68694A934230D1674B5B6D03F0C0
:102BB8000703052B26D801A252F823F0DD2B0008C5
:102BC800E52B0008ED2B0008F52B0008FD2B00086D
:102BD800052C0008002387F84330ECE1042387F82C
:102BE8004330E8E1082387F84330E4E1102387F80D
:102BF8004330E0E1202387F84330DCE1402387F8C5
:102C08004330D8E1802387F84330D4E17B691B68DF
:102C18004F4A934230D14C4B5B6D03F00703052BB1
:102C280026D801A252F823F0492C0008512C00089C
:102C3800592C0008612C0008692C0008712C000828
:102C4800002387F84330B6E1042387F84330B2E124
:102C5800082387F84330AEE1102387F84330AAE110
:102C6800202387F84330A6E1402387F84330A2E1C8
:102C7800802387F843309EE17B691B68354A93427D
:102C880030D1314B5B6D03F00703052B26D801A229
:102C980052F823F0B52C0008BD2C0008C52C0008FC
:102CA800CD2C0008D52C0008DD2C0008002387F85F
:102CB800433080E1042387F843307CE1082387F818
:102CC800433078E1102387F8433074E1202387F8F4
:102CD800433070E1402387F843306CE1802387F864
:102CE800433068E17B691B681B4A934242D1164B0B
:102CF8005B6D03F00703052B38D801A252F823F0C7
:102D0800212D0008292D0008312D0008392D000833
:102D1800652D00086D2D0008002387F843304AE12F
:102D2800042387F8433046E1082387F8433042E11B
:102D3800102387F843303EE1F369FFCF000C0058B9
:102D4800FFF4FF1100100140004402580044004005
:102D580000480040004C004000500040202387F805
:102D6800433028E1402387F8433024E1802387F863
:102D7800433020E17B691B68CB4A934276D1CB4B29
:102D88005B6D03F03803282B6CD801A252F823F0AE
:102D98003D2E00086D2E00086D2E00086D2E0008CF
:102DA8006D2E00086D2E00086D2E00086D2E00088F
:102DB800452E00086D2E00086D2E00086D2E0008A7
:102DC8006D2E00086D2E00086D2E00086D2E00086F
:102DD8004D2E00086D2E00086D2E00086D2E00087F
:102DE8006D2E00086D2E00086D2E00086D2E00084F
:102DF800552E00086D2E00086D2E00086D2E000857
:102E08006D2E00086D2E00086D2E00086D2E00082E
:102E18005D2E00086D2E00086D2E00086D2E00082E
:102E28006D2E00086D2E00086D2E00086D2E00080E
:102E3800652E0008012387F84330BCE0042387F897
:102E48004330B8E0082387F84330B4E0102387F80C
:102E58004330B0E0202387F84330ACE0402387F8C4
:102E68004330A8E0802387F84330A4E07B691B68DF
:102E78008F4A934230D18D4B5B6D03F00703052BCE
:102E880026D801A252F823F0A92E0008B12E000876
:102E9800B92E0008C12E0008C92E0008D12E00083E
:102EA800002387F8433086E0042387F8433082E024
:102EB800082387F843307EE0102387F843307AE010
:102EC800202387F8433076E0402387F8433072E0C8
:102ED800802387F843306EE07B691B68754A93420C
:102EE80030D1724B5B6D03F00703052B26D801A286
:102EF80052F823F0152F00081D2F0008252F000871
:102F08002D2F0008352F00083D2F0008002387F8D3
:102F1800433050E0042387F843304CE0082387F817
:102F2800433048E0102387F8433044E0202387F8F3
:102F3800433040E0402387F843303CE0802387F863
:102F4800433038E07B691B685B4A934230D1574B6A
:102F58009B6D03F00703052B26D801A252F823F036
:102F6800812F0008892F0008912F0008992F000849
:102F7800A12F0008A92F0008022387F843301AE080
:102F8800042387F8433016E0082387F8433012E01B
:102F9800102387F843300EE0202387F843300AE0F7
:102FA800402387F8433006E0802387F8433002E067
:102FB800802387F843307B691B683F4A934240F07F
:102FC800F88097F84330202B46DC022BC0F2828031
:102FD800023B1E2B7ED801A252F823F0673000086E
:102FE800DD3000086F300008DD300008DD300008F3
:102FF800DD3000087F300008DD300008DD300008D3
:10300800DD300008DD300008DD300008DD30000864
:10301800DD3000088F300008DD300008DD300008A2
:10302800DD300008DD300008DD300008DD30000844
:10303800DD300008DD300008DD300008DD30000834
:10304800DD300008DD300008DD300008DD30000824
:10305800DD300008CF300008402B37D03AE0FFF7CA
:10306800BFF9F8633CE007F124031846FFF7CEF9EF
:10307800BB6AFB6334E007F118031846FFF71AFB35
:10308800FB69FB632CE0094B1B6803F02003002B52
:1030980016D0064B1B68DB0803F00303074A22FA25
:1030A80003F3FB631CE000BF001401400044025816
:1030B80000780040007C0040000C00580090D003CD
:1030C8009D4BFB630CE09D4BFB6309E04FF4004311
:1030D800FB6305E00023FB63012387F8423000BF50
:1030E800FB6B002B00F0DE817B695B6A944A32F847
:1030F80013301A46FB6BB3FBF2F33B637B695A68E8
:1031080013465B0013443A6B9A4205D37B695B68AC
:103118001B033A6B9A4203D9012387F84230C1E175
:10312800FB6B0022BB60FA607B695B6A844A32F8F9
:1031380013309BB200223B607A60D7E90023D7E9BD
:103148000201FDF7C5F802460B46104619464FF036
:1031580000024FF000030B0243EA10630202796990
:103168004968490800200C46054612EB040843EB61
:1031780005097B695B6800229A46934652465B467E
:1031880040464946FDF7A4F802460B461346BB6382
:10319800BB6BB3F5407F08D3BB6BB3F5801F04D27C
:1031A8007B691B68BA6BDA607CE1012387F84230DF
:1031B80078E17B69DB69B3F5004F40F0C58097F88B
:1031C8004330202B48DC002B7BDB202B79D801A255
:1031D80052F823F0673200086F320008CB3200083B
:1031E800CB32000877320008CB320008CB32000817
:1031F800CB32000887320008CB320008CB320008F7
:10320800CB320008CB320008CB320008CB320008A2
:10321800CB32000897320008CB320008CB320008C6
:10322800CB320008CB320008CB320008CB32000882
:10323800CB320008CB320008CB320008CB32000872
:10324800CB320008CB320008CB320008CB32000862
:10325800CB320008BD320008402B2ED031E0FFF7FA
:1032680093F8F86333E0FFF7A5F8F8632FE007F168
:1032780024031846FFF7CAF8BB6AFB6327E007F187
:1032880018031846FFF716FAFB69FB631FE02D4B7E
:103298001B6803F02003002B09D02A4B1B68DB08AE
:1032A80003F00303244A22FA03F3FB630FE0224BE3
:1032B800FB630CE0214BFB6309E04FF40043FB6325
:1032C80005E00023FB63012387F8423000BFFB6B56
:1032D800002B00F0E7807B695B6A194A32F81330EB
:1032E8001A46FB6BB3FBF2F35A007B695B685B0819
:1032F8001A447B695B68B2FBF3F3BB63BB6B0F2BB0
:1033080016D9BB6BB3F5803F12D2BB6B9BB223F0CF
:103318000F03FB86BB6B5B089BB203F007039AB2F3
:10332800FB8E1343FB867B691B68FA8EDA60B9E073
:10333800012387F84230B5E00090D00300093D0032
:10334800A83900080044025897F84330202B49DC7C
:10335800002B7CDB202B7AD801A252F823F000BF87
:10336800F3330008FB3300085734000857340008CB
:10337800033400085734000857340008573400084D
:10338800133400085734000857340008573400082D
:1033980057340008573400085734000857340008D9
:1033A80023340008573400085734000857340008FD
:1033B80057340008573400085734000857340008B9
:1033C80057340008573400085734000857340008A9
:1033D8005734000857340008573400085734000899
:1033E80049340008402B2ED031E0FEF7CDFFF863BA
:1033F80033E0FEF7DFFFF8632FE007F124031846F8
:10340800FFF704F8BB6AFB6327E007F118031846C7
:10341800FFF750F9FB69FB631FE02D4B1B6803F0B6
:103428002003002B09D02A4B1B68DB0803F0030399
:10343800284A22FA03F3FB630FE0264BFB630CE0F8
:10344800254BFB6309E04FF40043FB6305E00023D1
:10345800FB63012387F8423000BFFB6B002B21D0B0
:103468007B695B6A1D4A32F813301A46FB6BB3FB63
:10347800F2F27B695B685B081A447B695B68B2FBA4
:10348800F3F3BB63BB6B0F2B09D9BB6BB3F5803F61
:1034980005D2BB6B9AB27B691B68DA6002E0012334
:1034A80087F842307B690122A3F86A207B690122F0
:1034B800A3F868207B6900225A677B6900229A6713
:1034C80097F8423018464837BD46BDE8B08F00BF70
:1034D800004402580090D00300093D00A8390008B4
:1034E80080B483B000AF78607B689B6A03F0080300
:1034F800002B0AD07B681B685B6823F400417B685B
:103508009A6B7B681B680A435A607B689B6A03F066
:103518000103002B0AD07B681B685B6823F4003129
:103528007B68DA6A7B681B680A435A607B689B6A17
:1035380003F00203002B0AD07B681B685B6823F446
:1035480080317B681A6B7B681B680A435A607B680A
:103558009B6A03F00403002B0AD07B681B685B6836
:1035680023F480217B685A6B7B681B680A435A6086
:103578007B689B6A03F01003002B0AD07B681B68EA
:103588009B6823F480517B68DA6B7B681B680A436D
:103598009A607B689B6A03F02003002B0AD07B6843
:1035A8001B689B6823F400517B681A6C7B681B6856
:1035B8000A439A607B689B6A03F04003002B1AD089
:1035C8007B681B685B6823F480117B685A6C7B6896
:1035D8001B680A435A607B685B6CB3F5801F0AD18D
:1035E8007B681B685B6823F4C0017B689A6C7B6806
:1035F8001B680A435A607B689B6A03F08003002BB0
:103608000AD07B681B685B6823F400217B68DA6C4E
:103618007B681B680A435A6000BF0C37BD465DF8DB
:10362800047B704780B598B002AF78607B68002251
:10363800C3F89020FDF77CFB78657B681B681B68E6
:1036480003F00803082B2FD16FF07E4300937B6DA6
:1036580000224FF40011786800F08EF80346002B22
:1036680022D07B681B68BB63BB6B53E8003F7B635E
:103678007B6B23F080033B657B681B681A463B6DB8
:103688007B643A64396C7A6C41E80023FB63FB6B1A
:10369800002BE6D17B682022C3F888207B680022B3
:1036A80083F88420032363E07B681B681B6803F0AE
:1036B8000403042B49D16FF07E4300937B6D0022F5
:1036C8004FF48001786800F057F80346002B3CD08F
:1036D8007B681B687B627B6A53E8003F3B623B6AFE
:1036E80023F49073FB647B681B681A46FB6C3B638E
:1036F800FA62F96A3A6B41E80023BB62BB6A002BA5
:10370800E6D17B681B6808333B613B6953E8003F9F
:10371800FB60FB6823F00103BB647B681B6808330C
:10372800BA6CFA61BB61B969FA6941E800237B6147
:103738007B69002BE5D17B682022C3F88C207B684D
:10374800002283F88420032312E07B682022C3F838
:1037580088207B682022C3F88C207B680022DA66E8
:103768007B6800221A677B68002283F88420002384
:1037780018465837BD4680BD80B584B000AFF860A4
:10378800B9603B601346FB714FE0BB69B3F1FF3F83
:103798004BD0FDF7CDFA02463B68D31ABA699A4274
:1037A80002D3BB69002B01D103234EE0FB681B68E1
:1037B8001B6803F00403002B37D0BB68802B34D080
:1037C800BB68402B31D0FB681B68DB6903F008033A
:1037D800082B10D1FB681B6808221A62F86800F0F1
:1037E80039F8FB680822C3F89020FB68002283F8A8
:1037F8008420012329E0FB681B68DB6903F400636C
:10380800B3F5006F11D1FB681B684FF400621A62B0
:10381800F86800F01FF8FB682022C3F89020FB68C6
:10382800002283F8842003230FE0FB681B68DA6911
:10383800BB681340BA689A420CBF01230023DBB26D
:103848001A46FB799A42A0D0002318461037BD4685
:1038580080BD000080B495B000AF78607B681B68BD
:103868007B637B6B53E8003F3B633B6B23F49073B4
:10387800FB647B681B681A46FB6C3B64FA63F96B54
:103888003A6C41E80023BB63BB6B002BE6D17B6835
:103898001B6808333B623B6A53E8003FFB61FA69E7
:1038A8001E4B1340BB647B681B680833BA6CFA6212
:1038B800BB62B96AFA6A41E800237B627B6A002B23
:1038C800E5D17B68DB6E012B18D17B681B68FB6038
:1038D800FB6853E8003FBB60BB6823F010037B64C0
:1038E8007B681B681A467B6CBB617A617969BA6927
:1038F80041E800233B613B69002BE6D17B6820222D
:10390800C3F88C207B680022DA667B6800225A673D
:1039180000BF5437BD465DF8047B7047FEFFFFEFDC
:1039280002440346934200D1704703F8011BF9E7AC
:1039380070B50D4D0D4C641BA4100026A64209D18C
:103948000B4D0C4C00F018F8641BA4100026A6427E
:1039580005D170BD55F8043B98470136EEE755F898
:10396800043B98470136F2E7C8390008C83900080F
:10397800C8390008CC390008F8B500BFF8BC08BC45
:103988009E467047F8B500BFF8BC08BC9E46704715
:1039980000000000010203040102030406070809ED
:1039A800010002000400060008000A000C001000D4
:0839B800200040008000000126
:0839C00048C9FF7F010000006F
:0439C800BD02000834
:0439CC009902000854
:1039D0000090D0030090D003004800401000000089
:0439E00001000000E2
:0400000508000A6184
:00000001FF
